:1000000007C1000033C1000031C100002FC1000052
:100010002DC100002BC1000029C1000027C1000034
:1000200025C1000023C1000021C100001FC1000044
:100030001DC100001BC1000019C1000017C1000054
:1000400015C1000013C1000011C100000FC1000064
:100050000DC100000BC1000009C100000AC500006D
:1000600005C10000D0C40000A5C40000FFC000000E
:10007000FDC00000FBC00000F9C00000F7C0000098
:10008000F5C00000F3C00000F1C00000EFC00000A8
:10009000EDC00000EBC00000E9C00000E7C00000B8
:1000A000E5C00000E3C00000E1C00000DFC00000C8
:1000B000DDC00000DBC00000D9C00000D7C00000D8
:1000C000D5C00000D3C00000D1C00000CFC00000E8
:1000D000CDC00000CBC00000C9C00000C7C00000F8
:1000E000C5C00000A602A90298029C02A002E0027C
:1000F000AD02B102B702BB02BF02C502C902CD0206
:10010000E002D302D702DB0200000A0B02090C0D49
:100110000E080703040100000000000000000000BA
:1001200000000000000000000000000000000000CF
:10013000000000001211100000000000000000008C
:1001400000000000000000000000000000000000AF
:100150002200250028002B002E003100340002016F
:100160000000050108010B01000021002400270008
:100170002A002D00300033000101000004010701B6
:100180000A0105050505070508080808020202021C
:100190000A0A080804040404010101010101010123
:1001A0000303030303030303040707070C0C0C0CEE
:1001B0000C0C0C0C020202020606060606060606D7
:1001C0000B0B0B0B0B0B0B0B010210202008081064
:1001D00020401020408002010201080402010102B7
:1001E0000408102040808040201008040201800490
:1001F00002018040201008040201080402010102EB
:10020000040810204080010204081020408083056B
:1002100011241FBECFEFD1E2DEBFCDBF00E00CBF87
:1002200023E0A2E6B2E001C01D92A037B207E1F7D9
:1002300012E0A0E0B2E0E2E7F0E100E00BBF02C0B4
:1002400007900D92A236B107D9F711E0C8E0D1E0CE
:1002500000E005C021970109802FFE01FCD6C730C0
:10026000D10780E00807B1F7AAD401C7C9CE90E052
:10027000FC01E853FE4F2491FC01EE57FE4F8491A0
:10028000882399F090E0880F991FFC01E859FE4FF0
:10029000A591B491FC01E25BFE4F859194918FB7DB
:1002A000F894EC91E22BEC938FBF0895CF92DF92FC
:1002B000EF92FF920F931F93CF93DF936C017A011C
:1002C0008B01C0E0D0E0CE15DF0589F0D8016D913B
:1002D0008D01D601ED91FC910190F081E02DC601D8
:1002E0001995892B11F47E0102C02196ECCFC7012C
:1002F000DF91CF911F910F91FF90EF90DF90CF9002
:100300000895FC01918D828D981761F0828DDF0137
:10031000A80FB11D5D968C91928D9F5F9F73928FF8
:1003200090E008958FEF9FEF0895FC01918D828DED
:10033000981731F0828DE80FF11D858D90E00895BA
:100340008FEF9FEF0895FC01918D228D892F90E012
:10035000805C9F4F821B91098F739927089583E7D3
:1003600092E0F1DF21E0892B09F420E0822F08954B
:10037000FC01848DDF01A80FB11DA35ABF4F2C9142
:10038000848D90E001968F739927848FA689B78911
:100390002C93A089B1898C9180648C93938D848DEA
:1003A000981306C00288F389E02D80818F7D8083B9
:1003B0000895EF92FF920F931F93CF93DF93EC0179
:1003C00081E0888F9B8D8C8D981305C0E889F98911
:1003D000808185FD23C0F62E0B8D10E00F5F1F4F2F
:1003E0000F731127E02E8C8DE8120BC00FB607FC9F
:1003F000FACFE889F989808185FFF5CFCE01B8DF92
:10040000F2CF8B8DFE01E80FF11DE35AFF4FF08212
:100410000B8FEA89FB898081806207C0EE89FF89A2
:100420006083E889F98980818064808381E090E03D
:10043000DF91CF911F910F91FF90EF900895CF938F
:10044000DF93EC01888D8823C1F0EA89FB898081E4
:1004500085FD05C0A889B9898C9186FD0EC00FB6AF
:1004600007FCF5CF808185FFF2CFA889B9898C91EF
:1004700085FFEDCFCE017CDFE8CFDF91CF910895EE
:1004800080E090E0892B19F06ADF811125C080E0BF
:1004900090E0892B41F080E090E0892B21F00E94D0
:1004A000000081111CC080E090E0892B41F080E0C9
:1004B00090E0892B21F00E940000811113C080E0A0
:1004C00090E0892BA1F080E090E0892B81F00E94E0
:1004D000000081110AC008950E940000D8CF0E9438
:1004E0000000E1CF0E940000EACF0C9400000895C4
:1004F000362F90E0FC01E85FFE4F4491FC01E85389
:10050000FE4F2491FC01EE57FE4F9491992309F47C
:100510006AC0442309F454C050E0FA013197E23133
:10052000F10508F04DC08827EE58FF4F8F4F93C557
:10053000809180008F7707C0809180008F7D03C0FD
:1005400080918000877F809380003AC084B58F7748
:1005500002C084B58F7D84BD33C08091B0008F7799
:1005600003C08091B0008F7D8093B00029C080913E
:1005700090008F7707C0809190008F7D03C080919D
:100580009000877F809390001BC08091A0008F77A0
:1005900007C08091A0008F7D03C08091A000877F5D
:1005A0008093A0000DC0809120018F7707C08091BB
:1005B00020018F7D03C080912001877F80932001DF
:1005C000E92FF0E0EE0FFF1FE25BFE4FA591B49123
:1005D0008FB7F894EC91311103C020952E2301C000
:1005E0002E2B2C938FBF08953FB7F894809167020C
:1005F00090916802A0916902B0916A0226B5A89B09
:1006000005C02F3F19F00196A11DB11D3FBFBA2FA4
:10061000A92F982F8827820F911DA11DB11DBC0104
:10062000CD0142E0660F771F881F991F4A95D1F7C9
:1006300008958F929F92AF92BF92CF92DF92EF92E6
:10064000FF926B017C01D0DF4B015C01C114D1042E
:10065000E104F104E9F0C8DFDC01CB018819990954
:10066000AA09BB09883E9340A105B10578F321E0B2
:10067000C21AD108E108F10888EE880E83E0981EBE
:10068000A11CB11CC114D104E104F10421F7DECF97
:10069000FF90EF90DF90CF90BF90AF909F908F90A2
:1006A00008952FB7F894609163027091640280916D
:1006B0006502909166022FBF0895CF93DF93EC01FE
:1006C00060E08E8115DF61E08E8112DF60E08E8157
:1006D0000FDF8BE891E00197F1F7DF91CF9108955B
:1006E000CF92DF92EF92FF920F931F93CF93DF93FE
:1006F0007C016C0187E0C80ED11CC0E0D0E0062F61
:1007000010E0B8010C2E02C0759567950A94E2F7C7
:100710006170F60181916F01EBDE2196C430D10545
:1007200081F7C701DF91CF911F910F91FF90EF905B
:10073000DF90CF90C2CFCF92DF92EF92FF920F93D4
:100740001F93CF93DF93EC01F62E642F8C81D0DEC4
:100750008D818F3F11F060E0CBDE8F850F2D10E093
:1007600084FF23C06E0187E0C80ED11CE12CF12C60
:10077000B8010E2C02C0759567950A94E2F7617076
:10078000F60181916F01B4DEFFEFEF1AFF0A88E0F6
:10079000E816F10469F7CE01DF91CF911F910F9117
:1007A000FF90EF90DF90CF9088CFB80184E07595EF
:1007B00067958A95E1F7CE0193DF6F2DCE01DF912A
:1007C000CF911F910F91FF90EF90DF90CF9088CF46
:1007D00041E0B1DF81E090E0089540E0ACCFEF92DE
:1007E000FF920F931F93CF93DF93EC01623018F0C9
:1007F0008F8588608F876B8B1C8A80E48D8B80E16E
:100800008E8B80E58F8B8C8132DD8D818F3F09F05F
:100810002EDD8E812CDD7E0187E0E80EF11C00E0EC
:1008200010E08F8584FD03C084E090E002C088E082
:1008300090E0081719073CF4F70181917F0117DD5B
:100840000F5F1F4FEECF8BE39DE00197F1F760E064
:100850008C814EDE60E08E814BDE8D818F3F11F00A
:1008600060E046DE6F8564FD19C063E0CE0138DFCD
:100870000BE416E4C8010197F1F763E0CE0130DF25
:10088000C8010197F1F763E0CE012ADF83E592E02A
:100890000197F1F762E0CE0123DF13C06062CE0161
:1008A0009CDF8BE496E40197F1F76F856062CE01DF
:1008B00094DF83E592E00197F1F76F856062CE01E6
:1008C0008CDF6F856062CE0188DF84E0888B6CE00E
:1008D000CE0183DF61E0CE0180DF8BE39FE10197F2
:1008E000F1F782E0898B66E0CE01DF91CF911F9115
:1008F0000F91FF90EF9071CFB6D36115710579F02C
:10090000FB0101900020E9F73197AF01461B570B1F
:10091000DC01ED91FC910280F381E02D199480E0DF
:1009200090E008954F925F926F927F92EF92FF92C4
:100930000F931F93CF93DF93CDB7DEB7A1970FB679
:10094000F894DEBF0FBECDBF7C01FA01CB0119A226
:10095000223008F42AE08E010F5D1F4F422E512CE9
:10096000612C712CBF01A301920153D3F901CA017B
:10097000015011096A3014F4605D01C0695CD8014E
:100980006C93232B242B252B69F7B801C701B5DF06
:10099000A1960FB6F894DEBF0FBECDBFDF91CF9109
:1009A0001F910F91FF90EF907F906F905F904F900D
:1009B0000895A3CF1F920F920FB60F9211240BB67A
:1009C0000F922F933F934F935F936F937F938F93E8
:1009D0009F93AF93BF93EF93FF9383E792E0C8DCBD
:1009E000FF91EF91BF91AF919F918F917F916F9107
:1009F0005F914F913F912F910F900BBE0F900FBEC3
:100A00000F901F9018951F920F920FB60F921124FE
:100A10000BB60F922F938F939F93EF93FF93E091D9
:100A20008302F09184028081E0918902F0918A0230
:100A300082FD12C0908180918C028F5F8F73209114
:100A40008D02821751F0E0918C02F0E0ED58FD4FDD
:100A5000958F80938C0201C08081FF91EF919F91CF
:100A60008F912F910F900BBE0F900FBE0F901F9084
:100A700018951F920F920FB60F9211242F933F9348
:100A80008F939F93AF93BF93809163029091640281
:100A9000A0916502B09166023091620223E0230FBB
:100AA0002D3720F40196A11DB11D05C026E8230FA6
:100AB0000296A11DB11D2093620280936302909360
:100AC0006402A0936502B0936602809167029091E0
:100AD0006802A0916902B0916A020196A11DB11D40
:100AE0008093670290936802A0936902B0936A02B0
:100AF000BF91AF919F918F913F912F910F900FBE1A
:100B00000F901F901895E3E7F2E01382128288EEAF
:100B100093E0A0E0B0E084839583A683B78384E06C
:100B200092E09183808385EC90E09587848784ECC4
:100B300090E09787868780EC90E0918B808B81ECAA
:100B400090E0938B828B82EC90E0958B848B86EC8B
:100B500090E0978B868B118E128E138E148EE0E1AF
:100B6000F3E0168217821086118612861386148689
:100B7000158616861786108A118A128A138A148A95
:100B8000158AE8E5F3E01382128284E192E0918312
:100B900080838CE084838FEF85838BE0868385E080
:100BA000878384E0808783E0818782E08287138661
:100BB000148615861686178661E0CF0110CE7894CC
:100BC00084B5826084BD84B5816084BD85B5826052
:100BD00085BD85B5816085BD80916E008160809303
:100BE0006E0010928100809181008260809381006C
:100BF000809181008160809381008091800081607C
:100C0000809380008091B10084608093B1008091D6
:100C1000B00081608093B0008091910082608093E9
:100C2000910080919100816080939100809190006B
:100C30008160809390008091A10082608093A100E8
:100C40008091A10081608093A1008091A0008160CB
:100C50008093A00080912101826080932101809186
:100C60002101816080932101809120018160809326
:100C7000200180917A00846080937A0080917A00CC
:100C8000826080937A0080917A00816080937A00FC
:100C900080917A00806880937A001092C10010924F
:100CA000540310925503109256031092570310925A
:100CB000120310921303109214031092150368EBA1
:100CC0007BE080E090E0B5DC83E792E09093530313
:100CD00080935203E0918302F091840282E080834A
:100CE000E0917F02F09180021082E0918102F09108
:100CF000820280E1808310928B02E0918702F09162
:100D0000880286E08083E0918502F09186028081EE
:100D100080618083E0918502F09186028081886005
:100D20008083E0918502F0918602808180688083D3
:100D3000E0918502F091860280818F7D8083B1DC15
:100D4000609312037093130380931403909315031D
:100D500068E172E080915203909153032ADE6AE0C9
:100D600070E080E090E065DC81E08093260362E043
:100D700088E593E034DD84EFC82EDD24D394E12CA4
:100D8000F12CCBE3DFE18DDC672B682B692B39F489
:100D900088DC623071058105910508F4F7C081DCBB
:100DA00060936F027093700280937102909372024D
:100DB00000916B0210916C0220916D0230916E02D5
:100DC000601771078207930740F460936B0270937A
:100DD0006C0280936D0290936E0200916B021091F1
:100DE0006C0220916D0230916E024B015C01801A01
:100DF000910AA20AB30A950184010A3F110521054F
:100E0000310508F4C3C060936B0270936C02809349
:100E10006D0290936E02C0921E03D0921F03E09267
:100E20002003F092210310922203109223031092C8
:100E30002403109225038091160390911703A0912B
:100E40001803B091190380931A0390931B03A09386
:100E50001C03B0931D0325DC6093160370931703E6
:100E600080931803909319031CDC60931203709312
:100E70001303809314039093150313DC4B015C015F
:100E80006AE272E0809152039091530392DD2AE06E
:100E900041E050E060E070E0809152039091530394
:100EA00041DD61E372E0809152039091530381DD53
:100EB0002AE0B501A401809152039091530332DDE1
:100EC00063E372E0809152039091530372DD80914D
:100ED000160390911703A0911803B0911903B5015F
:100EE000A401481B590B6A0B7B0B2AE0809152032B
:100EF0009091530317DD63E372E080915203909168
:100F0000530357DD40911603509117036091180366
:100F10007091190380911A0390911B03A0911C03F7
:100F2000B0911D03481B590B6A0B7B0B2AE0809183
:100F3000520390915303F6DC65E372E08091520313
:100F40009091530336DDADDBAB01BC012AE080910B
:100F5000520390915303E6DC009152031091530326
:100F600067E372E0C801C9DC67E272E0C801C5DC72
:100F700065E070E080E090E05CDB93DB609316035B
:100F800070931703809318039093190361E088E529
:100F900093E023DCCE010197F1F7E1E080916B0350
:100FA0008111E0E0E195F0E0E85AFC4F6489606867
:100FB00088E593E012DC6EE372E088E593E0F9DC0B
:100FC000E0916B03E23010F4E15001C0E1E0F0E0A9
:100FD000E85AFC4F6489606888E593E0FEDB60E5D1
:100FE00072E088E593E0E5DC60E273E080E090E0A9
:100FF00020DB0FE010E06CE188E593E0EEDB60E2DF
:1010000073E080E090E015DB01501109A1F738DAB8
:10101000BACEA1E21A2EAA1BBB1BFD010DC0AA1F4E
:10102000BB1FEE1FFF1FA217B307E407F50720F051
:10103000A21BB30BE40BF50B661F771F881F991FCC
:101040001A9469F760957095809590959B01AC0115
:10105000BD01CF010895EE0FFF1F881F8BBF0790C2
:10106000F691E02D199481E090E0F89400C0F89496
:02107000FFCFB0
:1010720000000000D9015601A301810195011F0260
:1010820000000000E8035601564D4450565F317C83
:10109200315F564D4450560D0A00564D4450455F3F
:1010A200003A323A007C005F564D44504500486594
:1010B2006C6C6F20776F726C642066726F6D3A0091
:1010C20069746563682D706C616E65742E6E6574EB
:0210D20000001C
:00000001FF
